:1000000086C0A0C041C19EC09DC09CC09BC09AC07C
:1000100099C098C097C096C095C094C093C004037F
:1000200009045003520075006E00650073007700EC
:1000300061006700670065007200200065006D00C8
:10004000610069006C003A00740069006D006F0087
:100050007400680079003300350039003200400038
:1000600067006D00610069006C002E0063006F0086
:100070006D001C034D0069006400690020004B0006
:100080006500790062006F0061007200640008037F
:100090004E002F0041001201100100000008C016A0
:1000A000E40500010102030109026500020100806C
:1000B000640904000000010100000924010100009E
:1000C00009010109040100020103000007240101E4
:1000D0000041000624020101000624020202000978
:1000E00024030103010201000924030204010101A8
:1000F000000905010340000A00000525010101096E
:1001000005810308000A00000525010103001124F0
:100110001FBECFE5D2E0DEBFCDBF10E0A0E6B0E06D
:10012000EEE7F8E002C005900D92AC36B107D9F7C2
:1001300010E0ACE6B0E001C01D92A63AB107E1F7CD
:1001400002D09BC35DCF59D010926F0010926E0009
:10015000B898C09A34D096B3917090936F00809104
:100160006E00981749F0992319F480E690E002C0D8
:1001700084E690E064E025D080916F0080936E006B
:10018000E9CF80E090E008950F931F93CF93DF9322
:10019000182FC2E2D1EA0AE00BC0CE010197F1F7B5
:1001A0001B3014F08AE002C0802F811B181BF7D18E
:1001B000112399F7DF91CF911F910F910895EFD1FE
:1001C00008951F93CF93DF93EC01162F0BC0E7D157
:1001D00080917B0084FFFBCFCE01612FBED119300F
:1001E0001CF01850112399F780E0DF91CF911F91F7
:1001F0000895F89401D378940895F894A3D180E0F9
:1002000090E020E80FB6F89426BD86BD0FBEF4D26C
:1002100088B3877E88BBBB9A84EC99E02CE931E0F7
:10022000F9013197F1F70197D9F7BB9878940895C0
:10023000A82FB92F80E090E041E050EA609530E0CF
:1002400009C02D9182279795879510F084279527CF
:10025000305EC8F36F5FA8F30895EADF8D939D9336
:100260000895A6E088279927AA9569F00197E1F3F8
:10027000B399FCCFB39BFECF81E09927A6B301963B
:1002800011F0A871D9F70895CF93CFB7CF93C39545
:10029000B39BE9F7B39B0BC0B39B09C0B39B07C0EB
:1002A000B39B05C0B39B03C0B39B01C0D5C00F92E5
:1002B000DF93C0918900DD27C057DF4F012EB39B2C
:1002C00003C0DF910F90E6CF2F930F931F934F93AF
:1002D0002FEF4F6F06B303FB20F95F933F9350E07E
:1002E0003BE065C016B30126502953FDC89556B3AF
:1002F000012703FB25F92F7306B3B1F05027102710
:1003000013FB26F906B22230F0F000C016B3012725
:1003100003FB27F90126502906B22430E8F54F7770
:10032000206816B30000F6CF50274F7D206206B23A
:10033000102F000000C006B300265029102713FB21
:1003400026F906B2E2CF4F7B06B3206400C0DACFB5
:1003500001265029187106B269F14E7F2160012FE4
:1003600016B328C0002650294D7F06B22260102FF8
:1003700029C0012650294B7F06B22460012F2DC0D1
:1003800016B301265029477F2860000006B22EC010
:100390004F7E06B3206130C0422706B34993002642
:1003A0005029102706B24FEF13FB20F9297F16B30F
:1003B00079F2187159F10126502906B2012703FB81
:1003C00021F9237F06B371F2002650293150D0F075
:1003D00006B2102713FB22F9277E16B351F201262D
:1003E0005029012703FB06B223F92F7C49F20000B4
:1003F00006B3102713FB24F90026502906B22F79E3
:1004000039F270CF10E21ABF002719C03B50319566
:10041000C31BD04010E21ABF0881033C09F10B3422
:10042000F9F0209187001981110F1213EDCF4A8145
:10043000441F093651F10D3211F0013E29F70093A6
:100440008E003F915F914F911F910F912F91DF91FE
:100450000F90CAB7C5FD1BCFCF91CFBFCF911895D5
:1004600020918E00222369F310918C00112379F5DD
:1004700034307AF130938C002093880010918900F9
:100480003BE0311B3093890024C000918C00013087
:10049000F4F40AE54F7049F43091680034FD1AC055
:1004A00000936800C0E7D0E019C030917B0034FDB4
:1004B00011C000937B00CCE7D0E010C0052710E00E
:1004C00000C021C0052710E0C89508BB14C03AE55C
:1004D00001C032ED032EC0E0D0E032E017B3186166
:1004E000C39A08B317BB58E120E84FEF20FF052758
:1004F00008BB279517951C3F28F700004552B0F719
:1005000020FF0527279508BB17951C3FB8F62991B2
:100510003A9561F7077E10918D00110F08BBC2500C
:10052000D04011F01093870010E21ABF086017B393
:10053000177E402F477E54E05A95F1F708BB17BB52
:1005400048BB7FCF8BB780628BBFAC9A8BE4809324
:100550007C008AE580937B0008951F93DC01162FB1
:1005600080917B0084FF07C080917C0098E88927F8
:1005700080937C0003C08AE580937B00912FEDE798
:10058000F0E08D91819391501916DCF38DE790E0A6
:10059000612F63DE1C5F10937B001F9108951F93F2
:1005A000CF93DF9390918C00935097FDA8C020913A
:1005B0008900809188008D3209F09FC0983009F041
:1005C0009CC0CCE0D0E0C21BD109C057DF4F83EC08
:1005D000809370008AE58093680010926D00888196
:1005E000807621F0CE01CDDDAC017CC09A811092E5
:1005F00079008981882329F410927A0042E050E042
:100600006BC0853019F490938D0064C0863009F07A
:100610004BC08B81813049F486E990E090938B0048
:1006200080938A0042E150E03BC0823049F488EA7E
:1006300090E090938B0080938A0045E650E030C0B4
:10064000833061F5992349F48EE190E090938B001B
:1006500080938A0044E050E023C0913049F482E264
:1006600090E090938B0080938A0040E550E018C0A2
:10067000923049F482E790E090938B0080938A0057
:100680004CE150E00DC0933049F48EE890E0909337
:100690008B0080938A0048E050E002C040E050E0C8
:1006A00080E480936D001EC0883029F441E050E062
:1006B0002FE830E013C0893019F490938F000AC0FE
:1006C0008A3019F441E050E007C08B3019F48BE414
:1006D00080937C0040E050E029E730E030938B00CD
:1006E00020938A002E813F81CA012417350708F420
:1006F000C90190936A008093690010928C008091E8
:10070000680084FF5EC08091690090916A002FEFBD
:100710008F3F920709F455C09C018930910510F074
:1007200028E030E0821B930B90936A00809369006D
:100730008091700098E8892780937000122F2223FF
:1007400081F120918A0030918B0080916D0086FFAD
:1007500012C0F901A1E7B0E0115031969F01210FBD
:10076000311D1F5F319784918D933196E217F30706
:10077000D1F78F2F12C0C901FC01A1E7B0E01150E1
:1007800031969F01210F311D1F5F319781918D930C
:10079000E217F307D9F7CF01892FE0938A008093FE
:1007A0008B0081E790E0612F58DD612F6C5F6C302A
:1007B00031F08FEF9FEF90936A0080936900609310
:1007C000680094E186B3887131F49150D9F71092A2
:1007D0008D001092870010E0992309F411E08091B8
:1007E0006C00811729F0112309F403DD10936C00CC
:1007F000DF91CF911F910895EF92FF920F931F9376
:10080000CF93DF9380E8F82E00E0C0E0D0E0102F17
:100810001F0D11BF26DD9C0189E0243338070CF041
:10082000102FF6942196C830D10511F0012FEFCF8B
:10083000115011BF1F5F7901C12FD0E0219610C068
:1008400010DD8453994097FF03C0909581959F4F89
:100850008E159F0514F411B77C0181B78F5F81BF9E
:1008600081B790E0C817D9075CF711BFDF91CF912E
:0E0870001F910F91FF90EF900895F894FFCF25
:0C087E000990457F088045005AFFFF00EC
:00000001FF
